:1000000012C02CC02BC0B7C16AC128C027C026C0EF
:1000100025C08BC023C022C021C020C0DAC11EC0B1
:100020001DC01CC01BC011241FBECFE5D4E0DEBF25
:10003000CDBF10E0A0E6B0E0E0E3F7E002C005903D
:100040000D92AA36B107D9F710E0AAE6B0E001C0D8
:100050001D92AB3AB107E1F702D068C3D1CF00D10E
:10006000AAD246E950E060E070E088E592E0D8D19D
:100070004AE550E06AE570E080E090E0D1D146E9E1
:1000800050E060E070E088E592E0CAD14AE550E0D7
:100090006AE570E080E090E0C3D146E950E060E0BE
:1000A00070E088E592E0BCD14AE550E06AE570E096
:1000B00080E090E0B5D146E950E060E070E088E58E
:1000C00092E0AED14AE550E06AE570E080E090E071
:1000D000A7D1FFCF1F93CF93DF93C0E0D0E016E00E
:1000E0001C9FF0011D9FF00D1124E659FF4F8081E8
:1000F0009181892B91F084819581019695838483E8
:1001000022813381848195812817390731F4158242
:1001100014820190F081E02D09952196C530D1051A
:10012000F9F6DF91CF911F9108951F920F920FB6AC
:100130000F9211242F933F934F935F936F937F936D
:100140008F939F93AF93BF93EF93FF93C3DFFF9181
:10015000EF91BF91AF919F918F917F916F915F913F
:100160004F913F912F910F900FBE0F901F901895B8
:1001700084B125B190E0922B20918C0030918D00BC
:10018000A901440F551FFA01E257FF4F9183808365
:1001900060919E0070919F00672BC1F12230310564
:1001A000ACF5692F7727FA01E857FF4FA081B1819D
:1001B000CB018A1B9B0B95958795959587958A0F03
:1001C0009B1F91838083DA01A05ABF4F4D915C91B0
:1001D0001197681B790B469FF001479FF00D569FC2
:1001E000F00D1124339754F1F90161E0E627EE0F89
:1001F000FF1FE056FF4F808191810196918380839C
:100200005195419551094D935C9318C024303105A7
:10021000A9F440919A0050919B00452B49F451E07C
:1002200040E080389C4F08F050E0852F942F02C0AA
:1002300081E090E090939B0080939A00F901EC5943
:10024000FF4F808187B980918C0090918D0001963D
:1002500066E070E035D290938D0080938C00089515
:1002600089E785BD89B7806489BF81E983BD10BCFA
:100270008FEC89B988E18AB986E880BD8FE387BBB6
:100280008CEF81BB81EA8FBD82E08EBD80E0BFD163
:1002900061E081E0C5D160E080E0C2D181E0A5D11C
:1002A000939A60E280E2D6D160E080E0CCD11092F7
:1002B0009F0010929E001092A6001092A50088EB5D
:1002C00090E090939D0080939C0084B38C7F84BBCE
:1002D000979A81E687B98FEE86B9789408951F9230
:1002E0000F920FB60F9211242F933F934F935F936A
:1002F0006F937F938F939F93AF93BF93EF93FF93EE
:1003000084B58B5D84BD8091A4008F5F8093A40031
:100310008091A400811113C08091A7009091A80042
:10032000A091A900B091AA000196A11DB11D8093D2
:10033000A7009093A800A093A900B093AA00809171
:10034000A5009091A600892B29F0E091A500F091DD
:10035000A6000995FF91EF91BF91AF919F918F9169
:100360007F916F915F914F913F912F910F900FBEB1
:100370000F901F9018951F920F920FB60F92112495
:100380008F939F93AF93BF938091A4008F5F8093CF
:10039000A4008091A400811113C08091A7009091C6
:1003A000A800A091A900B091AA000196A11DB11DBD
:1003B0008093A7009093A800A093A900B093AA00EF
:1003C000BF91AF919F918F910F900FBE0F901F9093
:1003D00018951F920F920FB60F9211242F933F93EF
:1003E0004F935F936F937F938F939F93AF93BF933D
:1003F000EF93FF93E0919C00F0919D000995FF9190
:10040000EF91BF91AF919F918F917F916F915F918C
:100410004F913F912F910F900FBE0F901F90189505
:10042000AF92BF92CF92DF92EF92FF920F931F9302
:10043000CF93DF9300D000D0CDB7DEB78C016B0136
:100440007A0160E080E0FFD001151105F9F0D801D4
:1004500017FF04C0AA27BB27A01BB10B20E137E27E
:1004600029D123EA3BE440E050E03ED117FF02C02F
:1004700060E11EC060E280E229833A834B835C83A3
:10048000E9D029813A814B815C811FC0D601D7FE1A
:1004900004C0AA27BB27AC19BD092AEA30E00AD15B
:1004A00028E631E040E050E01FD1D7FE03C060E213
:1004B00080E1E2CF60E180E229833A834B835C8371
:1004C000C9D05C814B813A81298160E070E080E095
:1004D00090E029833A834B835C837ED06E2D8E2DF2
:1004E000B2D087015701C12CD12C29813A814B818F
:1004F0005C81C601AA2797FDA095BA2F82179307A2
:10050000A407B50708F043C08091A0009091A10016
:10051000C80ED91E8091A0009091A1006091A20008
:100520007091A300861B970B181619066CF4EA1439
:10053000FB041CF0053F110524F08AE0A81AB1085D
:1005400012C0065F1F4F0FC0892B69F0E016F1063D
:1005500024F0E5EFAE16B1041CF00A50110903C0F7
:10056000FAE0AF0EB11C60E070E080E090E029831B
:100570003A834B835C8330D0602F8A2D64D081E036
:1005800090E079D05C814B813A812981B2CF60E0E3
:1005900080E060D088EC90E00F900F900F900F906B
:1005A000DF91CF911F910F91FF90EF90DF90CF904F
:1005B000BF90AF9060C0F89481E090E090939F006E
:1005C00080939E001092A1001092A0001092A300B0
:1005D0001092A200789408959093A1008093A000B7
:1005E0007093A3006093A2000895811102C0C09887
:1005F00003C0813019F4C09A92980895833011F4A1
:10060000C09A03C0823011F4C098929A089522B320
:1006100030E4839FC00111242F7B282B22BB089537
:10062000811104C0611102C0A99809C0979894B3C0
:10063000936094BB95B3936095BB8823A9F3611134
:1006400001C0A898089590E09BBD8ABD70E079BD77
:1006500068BD089592B39F7C982B92BB88B38F7C22
:10066000682B68BB08959091A400980F8091A40016
:100670008913FCCF08950F931F93CF93DF938C01C1
:10068000C0E0D0E0C017D10721F084E2ECDF219672
:10069000F9CFDF91CF911F910F910895A29FB001E3
:1006A000B39FC001A39F01D0B29F700D811D112483
:1006B000911D0895F3DFB7FF0895821B930B0895F2
:1006C000AA1BBB1B51E107C0AA1FBB1FA617B70778
:1006D00010F0A61BB70B881F991F5A95A9F7809594
:1006E0009095BC01CD010895A1E21A2EAA1BBB1B57
:1006F000FD010DC0AA1FBB1FEE1FFF1FA217B307EE
:10070000E407F50720F0A21BB30BE40BF50B661F03
:10071000771F881F991F1A9469F7609570958095C7
:1007200090959B01AC01BD01CF010895F894FFCFD6
:0A07300001000100626364E56061EE
:00000001FF
